{
  "_format": "hh-sol-artifact-1",
  "contractName": "ArcTipJar",
  "sourceName": "contracts/ArcTipJar.sol",
  "abi": [
    {
      "inputs": [
        {
          "internalType": "address",
          "name": "usdc_",
          "type": "address"
        }
      ],
      "stateMutability": "nonpayable",
      "type": "constructor"
    },
    {
      "anonymous": false,
      "inputs": [
        {
          "indexed": true,
          "internalType": "address",
          "name": "sender",
          "type": "address"
        },
        {
          "indexed": true,
          "internalType": "address",
          "name": "creator",
          "type": "address"
        },
        {
          "indexed": false,
          "internalType": "uint256",
          "name": "amount",
          "type": "uint256"
        },
        {
          "indexed": false,
          "internalType": "string",
          "name": "message",
          "type": "string"
        },
        {
          "indexed": false,
          "internalType": "uint256",
          "name": "timestamp",
          "type": "uint256"
        }
      ],
      "name": "TipSent",
      "type": "event"
    },
    {
      "inputs": [
        {
          "internalType": "address",
          "name": "creator",
          "type": "address"
        },
        {
          "internalType": "uint256",
          "name": "amount",
          "type": "uint256"
        },
        {
          "internalType": "string",
          "name": "message",
          "type": "string"
        }
      ],
      "name": "tip",
      "outputs": [],
      "stateMutability": "nonpayable",
      "type": "function"
    },
    {
      "inputs": [],
      "name": "usdc",
      "outputs": [
        {
          "internalType": "contract IERC20",
          "name": "",
          "type": "address"
        }
      ],
      "stateMutability": "view",
      "type": "function"
    }
  ],
  "bytecode": "0x60a060405234801561001057600080fd5b506040516104c33803806104c383398101604081905261002f9161009a565b6001600160a01b0381166100895760405162461bcd60e51b815260206004820152601560248201527f5553444320616464726573732072657175697265640000000000000000000000604482015260640160405180910390fd5b6001600160a01b03166080526100ca565b6000602082840312156100ac57600080fd5b81516001600160a01b03811681146100c357600080fd5b9392505050565b6080516103d86100eb600039600081816040015261019701526103d86000f3fe608060405234801561001057600080fd5b50600436106100365760003560e01c80633e413bee1461003b578063b008c34e1461007e575b600080fd5b6100627f000000000000000000000000000000000000000000000000000000000000000081565b6040516001600160a01b03909116815260200160405180910390f35b61009161008c3660046102a4565b610093565b005b6001600160a01b0384166100e15760405162461bcd60e51b815260206004820152601060248201526f10dc99585d1bdc881c995c5d5a5c995960821b60448201526064015b60405180910390fd5b600083116101235760405162461bcd60e51b815260206004820152600f60248201526e105b5bdd5b9d081c995c5d5a5c9959608a1b60448201526064016100d8565b6101188111156101685760405162461bcd60e51b815260206004820152601060248201526f4d65737361676520746f6f206c6f6e6760801b60448201526064016100d8565b6040516323b872dd60e01b81523360048201526001600160a01b038581166024830152604482018590526000917f0000000000000000000000000000000000000000000000000000000000000000909116906323b872dd906064016020604051808303816000875af11580156101e2573d6000803e3d6000fd5b505050506040513d601f19601f820116820180604052508101906102069190610339565b90508061024c5760405162461bcd60e51b81526020600482015260146024820152731554d110c81d1c985b9cd9995c8819985a5b195960621b60448201526064016100d8565b846001600160a01b0316336001600160a01b03167f981a5763d79e2ce003fc0775cd913962b6959559e89eac108dd58de1fc6d86ab868686426040516102959493929190610362565b60405180910390a35050505050565b600080600080606085870312156102ba57600080fd5b84356001600160a01b03811681146102d157600080fd5b935060208501359250604085013567ffffffffffffffff808211156102f557600080fd5b818701915087601f83011261030957600080fd5b81358181111561031857600080fd5b88602082850101111561032a57600080fd5b95989497505060200194505050565b60006020828403121561034b57600080fd5b8151801515811461035b57600080fd5b9392505050565b848152606060208201528260608201528284608083013760006080848301015260006080601f19601f86011683010190508260408301529594505050505056fea2646970667358221220471dfc0c4a15ede62c20b45a4f945442fe6a30501617520d3d9705833fd4a94164736f6c63430008180033",
  "linkReferences": {},
  "deployedLinkReferences": {}
}